{
  "contractName": "Mentorship",
  "abi": [
    {
      "anonymous": false,
      "inputs": [
        {
          "indexed": false,
          "internalType": "uint256",
          "name": "departmentId",
          "type": "uint256"
        },
        {
          "indexed": false,
          "internalType": "address",
          "name": "requester",
          "type": "address"
        }
      ],
      "name": "MentorshipFetchRequested",
      "type": "event"
    },
    {
      "inputs": [
        {
          "internalType": "uint256",
          "name": "departmentId",
          "type": "uint256"
        }
      ],
      "name": "fetchMentorship",
      "outputs": [],
      "stateMutability": "nonpayable",
      "type": "function"
    }
  ],
  "bytecode": "0x608060405234801561001057600080fd5b50610196806100206000396000f3fe608060405234801561001057600080fd5b506004361061002b5760003560e01c806386d708a914610030575b600080fd5b61004a6004803603810190610045919061009d565b61004c565b005b7f218c987087255fe4804b69a11dc758c7cc63ab3efcaf895c5a3eeb219d4909da813360405161007d9291906100e4565b60405180910390a150565b60008135905061009781610149565b92915050565b6000602082840312156100af57600080fd5b60006100bd84828501610088565b91505092915050565b6100cf8161010d565b82525050565b6100de8161013f565b82525050565b60006040820190506100f960008301856100d5565b61010660208301846100c6565b9392505050565b60006101188261011f565b9050919050565b600073ffffffffffffffffffffffffffffffffffffffff82169050919050565b6000819050919050565b6101528161013f565b811461015d57600080fd5b5056fea2646970667358221220cd8e35e9a24ba70c44c7dd1a2d30399a65b81bc99dd5ec70d5dc38b39ea7681f64736f6c63430008000033",
  "immutableReferences": {},
  "source": "// SPDX-License-Identifier: MIT\r\npragma solidity ^0.8.0;\r\n\r\n// Contract to fetch mentorship details by department\r\ncontract Mentorship {\r\n    // Event to be emitted when mentorship details are fetched\r\n    event MentorshipFetchRequested(uint256 departmentId, address requester);\r\n    function fetchMentorship(uint256 departmentId) public {\r\n        // Emit the event\r\n        emit MentorshipFetchRequested(departmentId, msg.sender);\r\n    }\r\n}\r\n",
  "sourcePath": "C:\\Users\\catha\\Documents\\CollegeProjects\\CS4207_Project\\contracts\\Mentorship.sol",
  "compiler": {
    "name": "solc",
    "version": "0.8.0+commit.c7dfd78e.Emscripten.clang"
  },
  "schemaVersion": "3.4.16",
  "updatedAt": "2024-12-06T16:18:28.915Z",
  "devdoc": {
    "kind": "dev",
    "methods": {},
    "version": 1
  },
  "userdoc": {
    "kind": "user",
    "methods": {},
    "version": 1
  }
}