{
  "contractName": "StudentRequestSystem",
  "abi": [
    {
      "anonymous": false,
      "inputs": [
        {
          "indexed": true,
          "internalType": "address",
          "name": "student",
          "type": "address"
        },
        {
          "indexed": true,
          "internalType": "uint256",
          "name": "requestId",
          "type": "uint256"
        },
        {
          "indexed": false,
          "internalType": "uint256",
          "name": "courseId",
          "type": "uint256"
        },
        {
          "indexed": false,
          "internalType": "uint256",
          "name": "timestamp",
          "type": "uint256"
        }
      ],
      "name": "RequestCreated",
      "type": "event"
    },
    {
      "anonymous": false,
      "inputs": [
        {
          "indexed": true,
          "internalType": "uint256",
          "name": "requestId",
          "type": "uint256"
        }
      ],
      "name": "RequestFulfilled",
      "type": "event"
    },
    {
      "inputs": [],
      "name": "requestCount",
      "outputs": [
        {
          "internalType": "uint256",
          "name": "",
          "type": "uint256"
        }
      ],
      "stateMutability": "view",
      "type": "function"
    },
    {
      "inputs": [
        {
          "internalType": "uint256",
          "name": "",
          "type": "uint256"
        }
      ],
      "name": "requests",
      "outputs": [
        {
          "internalType": "address",
          "name": "student",
          "type": "address"
        },
        {
          "internalType": "uint256",
          "name": "courseId",
          "type": "uint256"
        },
        {
          "internalType": "uint256",
          "name": "timestamp",
          "type": "uint256"
        },
        {
          "internalType": "bool",
          "name": "fulfilled",
          "type": "bool"
        }
      ],
      "stateMutability": "view",
      "type": "function"
    },
    {
      "inputs": [
        {
          "internalType": "uint256",
          "name": "_courseId",
          "type": "uint256"
        }
      ],
      "name": "createRequest",
      "outputs": [],
      "stateMutability": "nonpayable",
      "type": "function"
    },
    {
      "inputs": [
        {
          "internalType": "uint256",
          "name": "_requestId",
          "type": "uint256"
        }
      ],
      "name": "getRequest",
      "outputs": [
        {
          "internalType": "address",
          "name": "",
          "type": "address"
        },
        {
          "internalType": "uint256",
          "name": "",
          "type": "uint256"
        },
        {
          "internalType": "uint256",
          "name": "",
          "type": "uint256"
        },
        {
          "internalType": "bool",
          "name": "",
          "type": "bool"
        }
      ],
      "stateMutability": "view",
      "type": "function"
    },
    {
      "inputs": [
        {
          "internalType": "uint256",
          "name": "_requestId",
          "type": "uint256"
        }
      ],
      "name": "fulfillRequest",
      "outputs": [],
      "stateMutability": "nonpayable",
      "type": "function"
    },
    {
      "inputs": [
        {
          "internalType": "uint256",
          "name": "_requestId",
          "type": "uint256"
        }
      ],
      "name": "isRequestFulfilled",
      "outputs": [
        {
          "internalType": "bool",
          "name": "",
          "type": "bool"
        }
      ],
      "stateMutability": "view",
      "type": "function"
    }
  ],
  "bytecode": "0x608060405234801561001057600080fd5b50610823806100206000396000f3fe608060405234801561001057600080fd5b50600436106100625760003560e01c80635badbe4c1461006757806381d12c58146100855780639a91eb0d146100b8578063ad44777b146100d4578063c58343ef14610104578063da7620a314610137575b600080fd5b61006f610153565b60405161007c91906106c1565b60405180910390f35b61009f600480360381019061009a919061054b565b610159565b6040516100af9493929190610621565b60405180910390f35b6100d260048036038101906100cd919061054b565b6101b6565b005b6100ee60048036038101906100e9919061054b565b610300565b6040516100fb9190610666565b60405180910390f35b61011e6004803603810190610119919061054b565b61032c565b60405161012e9493929190610621565b60405180910390f35b610151600480360381019061014c919061054b565b6103fc565b005b60015481565b60006020528060005260406000206000915090508060000160009054906101000a900473ffffffffffffffffffffffffffffffffffffffff16908060010154908060020154908060030160009054906101000a900460ff16905084565b60008060008381526020019081526020016000209050600073ffffffffffffffffffffffffffffffffffffffff168160000160009054906101000a900473ffffffffffffffffffffffffffffffffffffffff1673ffffffffffffffffffffffffffffffffffffffff161415610260576040517f08c379a0000000000000000000000000000000000000000000000000000000008152600401610257906106a1565b60405180910390fd5b8060030160009054906101000a900460ff16156102b2576040517f08c379a00000000000000000000000000000000000000000000000000000000081526004016102a990610681565b60405180910390fd5b60018160030160006101000a81548160ff021916908315150217905550817f1cedb001a5114ea90393cd9f134224e9e1312545ee8a9b9533d780be6a9bf8b760405160405180910390a25050565b600080600083815260200190815260200160002060030160009054906101000a900460ff169050919050565b60008060008060008060008781526020019081526020016000206040518060800160405290816000820160009054906101000a900473ffffffffffffffffffffffffffffffffffffffff1673ffffffffffffffffffffffffffffffffffffffff1673ffffffffffffffffffffffffffffffffffffffff16815260200160018201548152602001600282015481526020016003820160009054906101000a900460ff161515151581525050905080600001518160200151826040015183606001519450945094509450509193509193565b6001600081548092919061040f9061075e565b919050555060405180608001604052803373ffffffffffffffffffffffffffffffffffffffff16815260200182815260200142815260200160001515815250600080600154815260200190815260200160002060008201518160000160006101000a81548173ffffffffffffffffffffffffffffffffffffffff021916908373ffffffffffffffffffffffffffffffffffffffff160217905550602082015181600101556040820151816002015560608201518160030160006101000a81548160ff0219169083151502179055509050506001543373ffffffffffffffffffffffffffffffffffffffff167f50399db0c10d3270d7bf9e59d6c15c7ded3f4ce80087fd5107bc76820f6daa52834260405161052b9291906106dc565b60405180910390a350565b600081359050610545816107d6565b92915050565b60006020828403121561055d57600080fd5b600061056b84828501610536565b91505092915050565b61057d81610716565b82525050565b61058c81610728565b82525050565b600061059f601983610705565b91507f5265717565737420616c72656164792066756c66696c6c6564000000000000006000830152602082019050919050565b60006105df601683610705565b91507f5265717565737420646f6573206e6f74206578697374000000000000000000006000830152602082019050919050565b61061b81610754565b82525050565b60006080820190506106366000830187610574565b6106436020830186610612565b6106506040830185610612565b61065d6060830184610583565b95945050505050565b600060208201905061067b6000830184610583565b92915050565b6000602082019050818103600083015261069a81610592565b9050919050565b600060208201905081810360008301526106ba816105d2565b9050919050565b60006020820190506106d66000830184610612565b92915050565b60006040820190506106f16000830185610612565b6106fe6020830184610612565b9392505050565b600082825260208201905092915050565b600061072182610734565b9050919050565b60008115159050919050565b600073ffffffffffffffffffffffffffffffffffffffff82169050919050565b6000819050919050565b600061076982610754565b91507fffffffffffffffffffffffffffffffffffffffffffffffffffffffffffffffff82141561079c5761079b6107a7565b5b600182019050919050565b7f4e487b7100000000000000000000000000000000000000000000000000000000600052601160045260246000fd5b6107df81610754565b81146107ea57600080fd5b5056fea26469706673582212206b7d4effb5f58106e94e07e8fedc5a5e2efd44ad19b02562530c80668afed4ea64736f6c63430008000033",
  "immutableReferences": {},
  "source": "// SPDX-License-Identifier: MIT\r\npragma solidity ^0.8.0;\r\n\r\ncontract StudentRequestSystem {\r\n\r\n    // Struct to represent a student request\r\n    struct Request {\r\n        address student;     // The address of the student making the request\r\n        uint256 courseId;    // The ID of the requested course\r\n        uint256 timestamp;   // When the request was made\r\n        bool fulfilled;      // Whether the request has been processed (fulfilled)\r\n    }\r\n\r\n    // A mapping to store student requests by request ID\r\n    mapping(uint256 => Request) public requests;\r\n\r\n    // A counter for the number of requests made\r\n    uint256 public requestCount;\r\n\r\n    // Event to notify when a new request is created\r\n    event RequestCreated(address indexed student, uint256 indexed requestId, uint256 courseId, uint256 timestamp);\r\n    \r\n    // Event to notify when a request is marked as fulfilled\r\n    event RequestFulfilled(uint256 indexed requestId);\r\n\r\n    // Function to create a new request\r\n    function createRequest(uint256 _courseId) public {\r\n        // Increment the request count\r\n        requestCount++;\r\n\r\n        // Create the new request and store it in the mapping\r\n        requests[requestCount] = Request({\r\n            student: msg.sender,\r\n            courseId: _courseId,\r\n            timestamp: block.timestamp,\r\n            fulfilled: false\r\n        });\r\n\r\n        // Emit the RequestCreated event\r\n        emit RequestCreated(msg.sender, requestCount, _courseId, block.timestamp);\r\n    }\r\n\r\n    // Function to get details of a request by its ID\r\n    function getRequest(uint256 _requestId) public view returns (address, uint256, uint256, bool) {\r\n        Request memory req = requests[_requestId];\r\n        return (req.student, req.courseId, req.timestamp, req.fulfilled);\r\n    }\r\n\r\n    // Function to mark a request as fulfilled (e.g., when the student is provided with the requested course info)\r\n    function fulfillRequest(uint256 _requestId) public {\r\n        Request storage req = requests[_requestId];\r\n        require(req.student != address(0), \"Request does not exist\");  // Ensure the request exists\r\n        require(!req.fulfilled, \"Request already fulfilled\");\r\n\r\n        // Mark the request as fulfilled\r\n        req.fulfilled = true;\r\n\r\n        // Emit the RequestFulfilled event\r\n        emit RequestFulfilled(_requestId);\r\n    }\r\n\r\n    // Additional function to check if a request is fulfilled\r\n    function isRequestFulfilled(uint256 _requestId) public view returns (bool) {\r\n        return requests[_requestId].fulfilled;\r\n    }\r\n}\r\n",
  "sourcePath": "C:\\Users\\catha\\Documents\\College\\CS4207_Project\\contracts\\StudentRequestSystem.sol",
  "compiler": {
    "name": "solc",
    "version": "0.8.0+commit.c7dfd78e.Emscripten.clang"
  },
  "schemaVersion": "3.4.16",
  "updatedAt": "2024-12-02T09:23:32.081Z",
  "devdoc": {
    "kind": "dev",
    "methods": {},
    "version": 1
  },
  "userdoc": {
    "kind": "user",
    "methods": {},
    "version": 1
  }
}